:100000000C9462000C948A000C948A000C948A0070
:100010000C948A000C948A000C948A000C948A0038
:100020000C948A000C948A000C948A000C948A0028
:100030000C948A000C948A000C948A000C948A0018
:100040000C9457030C948A000C94C7030C94A103DE
:100050000C948A000C948A000C948A000C948A00F8
:100060000C948A000C948A000000000024002700F1
:100070002A0000000000250028002B0000000000DE
:1000800023002600290004040404040404040202DA
:100090000202020203030303030301020408102007
:1000A0004080010204081020010204081020000012
:1000B0000008000201000003040700000000000027
:1000C0000000C30511241FBECFEFD8E0DEBFCDBFB7
:1000D00011E0A0E0B1E0E2E4FEE002C005900D9284
:1000E000A231B107D9F721E0A2E1B1E001C01D9230
:1000F000A03CB207E1F710E0C2E6D0E004C02197CF
:10010000FE010E941907C136D107C9F70E943E04BB
:100110000C941F070C940000833081F028F4813088
:1001200099F08230A9F008958730A9F08830C9F09D
:100130008430B1F4809180008F7D03C08091800075
:100140008F7780938000089584B58F7784BD08955C
:1001500084B58F7DFBCF8091B0008F778093B00006
:1001600008958091B0008F7DF9CFCF93DF93282F32
:1001700030E0F901E255FF4F8491F901E656FF4F57
:10018000D491F901EA57FF4FC491CC23A1F081111A
:100190000E948C00EC2FF0E0EE0FFF1FE458FF4FA1
:1001A000A591B491EC91ED2381E090E009F480E019
:1001B000DF91CF91089580E090E0FACF1F93CF9325
:1001C000DF93282F30E0F901E255FF4F8491F901C8
:1001D000E656FF4FD491F901EA57FF4FC491CC2363
:1001E000A9F0162F81110E948C00EC2FF0E0EE0F89
:1001F000FF1FEE58FF4FA591B4918FB7F894EC9183
:10020000111108C0D095DE23DC938FBFDF91CF9111
:100210001F910895DE2BF8CFCF93DF9390E0FC0180
:10022000E656FF4F24918A579F4FFC018491882303
:10023000D1F090E0880F991FFC01E859FF4FA5917C
:10024000B491FC01EE58FF4FC591D49161110EC0DD
:100250009FB7F8948C91E22FE0958E238C932881A0
:10026000E223E8839FBFDF91CF9108958FB7F89481
:10027000EC91E22BEC938FBFF6CF3FB7F8948091CF
:10028000BC019091BD01A091BE01B091BF0126B506
:10029000A89B05C02F3F19F00196A11DB11D3FBFBE
:1002A000BA2FA92F982F8827BC01CD01620F711D8D
:1002B000811D911D42E0660F771F881F991F4A9587
:1002C000D1F708958F929F92AF92BF92CF92DF9213
:1002D000EF92FF924B015C010E943D016B017C019A
:1002E0000E943D016C197D098E099F09683E73408B
:1002F00081059105A8F321E0821A9108A108B108AF
:1003000088EEC80E83E0D81EE11CF11C8114910414
:10031000A104B10429F7FF90EF90DF90CF90BF9038
:10032000AF909F908F900895AF92BF92CF92DF923F
:10033000EF92FF920F931F93CF93DF936C017B019A
:100340008B01040F151FEB015E01AE18BF08C0172B
:10035000D10759F06991D601ED91FC910190F0819E
:10036000E02DC6010995892B79F7C501DF91CF9161
:100370001F910F91FF90EF90DF90CF90BF90AF90C3
:100380000895FC01538D448D252F30E0842F90E09B
:10039000821B930B541710F0CF9608950197089580
:1003A000FC01918D828D981761F0A28DAE0FBF2F49
:1003B000B11D5D968C91928D9F5F9F73928F90E09F
:1003C00008958FEF9FEF0895FC01918D828D98170E
:1003D00031F0828DE80FF11D858D90E008958FEF4B
:1003E0009FEF0895FC01918D228D892F90E0805C14
:1003F0009F4F821B91098F739927089582E191E0A5
:100400000E94F20121E0892B09F420E0822F089557
:1004100080E090E0892B29F00E94FE0181110C946C
:1004200000000895FC01A48DA80FB92FB11DA35A97
:10043000BF4F2C91848D90E001968F739927848F04
:10044000A689B7892C93A089B1898C918370806427
:100450008C93938D848D981306C00288F389E02DC8
:1004600080818F7D80830895EF92FF920F931F9379
:10047000CF93DF93EC0181E0888F9B8D8C8D981357
:100480001AC0E889F989808185FF15C09FB7F89463
:10049000EE89FF896083E889F989808183708064AF
:1004A00080839FBF81E090E0DF91CF911F910F91FA
:1004B000FF90EF900895F62E0B8D10E00F5F1F4F09
:1004C0000F731127E02E8C8D8E110CC00FB607FC18
:1004D000FACFE889F989808185FFF5CFCE010E94A6
:1004E0001202F1CFEB8DEC0FFD2FF11DE35AFF4F00
:1004F000F0829FB7F8940B8FEA89FB898081806234
:10050000CFCFCF93DF93EC01888D8823B9F0AA89F0
:10051000BB89E889F9898C9185FD03C0808186FDBE
:100520000DC00FB607FCF7CF8C9185FFF2CF80810D
:1005300085FFEDCFCE010E941202E9CFDF91CF916E
:10054000089560E085E00E94DE0060E086E00E94A1
:10055000DE0060E089E00E94DE0060E08AE00C944A
:10056000DE00CF93C82F61E00E940C01EC2FF0E079
:10057000E255FF4FE491E33049F148F4E130C9F02E
:10058000E230F1F061E08C2FCF910C94DE00E73087
:1005900049F1E83081F1E430A9F780918000806270
:1005A0008093800088EC90E090938B0080938A0089
:1005B00005C084B5806884BD88EC87BDCF9108955F
:1005C00084B5806284BD88EC88BDF8CF80918000BE
:1005D00080688093800088EC90E0909389008093FD
:1005E0008800ECCF8091B00080688093B00088ECE8
:1005F0008093B300E3CF8091B00080628093B0001D
:1006000088EC8093B400DACF85E00E94B10260E00C
:1006100086E00E94DE0060E089E00E94DE008AE061
:100620000C94B1020F931F9360E08BE00E94DE00F8
:1006300083E090E00197F1F761E08BE00E94DE003B
:1006400083E290E00197F1F760E08BE00E94DE002A
:10065000E6EAF0E06491E2E9F0E0E491F0E0EE0F28
:10066000FF1FE458FF4F8591949100E412E42FE0BE
:1006700030E0462F0E94F90361157105810591054F
:1006800029F06F5F7F4F8F4F9F4F9F700E94F7053C
:1006900026E933E44BE05DE30E945B0620E030E0B6
:1006A00040E05FE30E945B061F910F9108951F9247
:1006B0000F920FB60F9211242F933F938F939F9316
:1006C000AF93BF938091B8019091B901A091BA0105
:1006D000B091BB013091B70123E0230F2D3758F5BE
:1006E0000196A11DB11D2093B7018093B80190938D
:1006F000B901A093BA01B093BB018091BC01909164
:10070000BD01A091BE01B091BF010196A11DB11D17
:100710008093BC019093BD01A093BE01B093BF0133
:10072000BF91AF919F918F913F912F910F900FBEED
:100730000F901F90189526E8230F0296A11DB11D5A
:10074000D2CF1F920F920FB60F9211242F933F9387
:100750004F935F936F937F938F939F93AF93BF93C9
:10076000EF93FF9382E191E00E941202FF91EF91DB
:10077000BF91AF919F918F917F916F915F914F91B9
:100780003F912F910F900FBE0F901F9018951F92C1
:100790000F920FB60F9211242F938F939F93EF9385
:1007A000FF93E0912201F09123018081E0912801E3
:1007B000F091290182FD1BC0908180912B018F5FF8
:1007C0008F7320912C01821741F0E0912B01F0E012
:1007D000EE5EFE4F958F80932B01FF91EF919F91DD
:1007E0008F912F910F900FBE0F901F9018958081C1
:1007F000F4CFCF92DF92EF92FF920F931F93E82FE7
:10080000F92F05C0015011092109310961F19081C9
:1008100096239417B9F305C0015011092109310934
:1008200011F1908196239413F7CFC12CD12CE12C98
:10083000F12C0AC08FEFC81AD80AE80AF80A0C157A
:100840001D052E053F0579F080818623841791F3DD
:100850006C2D7D2D8E2D9F2D1F910F91FF90EF9070
:10086000DF90CF90089560E070E080E090E01F910D
:100870000F91FF90EF90DF90CF900895789484B51A
:10088000826084BD84B5816084BD85B5826085BD8C
:1008900085B5816085BD80916E00816080936E001A
:1008A000109281008091810082608093810080910C
:1008B00081008160809381008091800081608093BD
:1008C00080008091B10084608093B1008091B0007D
:1008D00081608093B00080917A00846080937A0078
:1008E00080917A00826080937A0080917A008160A2
:1008F00080937A0080917A00806880937A001092C9
:10090000C10060E082E00E940C0160E083E00E9490
:100910000C0161E085E00E940C0161E086E00E942C
:100920000C0161E089E00E940C0161E08AE00E9414
:100930000C0161E08BE00E940C0160E08CE00E9401
:100940000C01E0912201F091230182E08083E0918B
:100950001E01F0911F011082E0912001F091210110
:100960008FEC808310922A01E0912601F0912701FB
:1009700086E08083E0912401F091250180818061EF
:100980008083E0912401F09125018081886080833B
:10099000E0912401F0912501808180688083E091BD
:1009A0002401F091250180818F7D80830E94A10226
:1009B00000E010E094E0E92EF12C23E0C22ED12CCF
:1009C00032E0A32EB12CC1E0D0E08091B50190912E
:1009D000B6018230910509F43EC078F4009709F41D
:1009E000CDC0019739F10115110579F30E94FE017F
:1009F000882359F30E940000E8CF8330910509F461
:100A00007EC0049781F785E00E94B10260E086E035
:100A10000E94DE0089E00E94B10260E08AE00E944C
:100A2000DE0068EE73E080E090E00E9462010E94C8
:100A3000A102A4C00E9404030E94120320E030E03F
:100A400040E752E40E94F00518166CF2B092B6012D
:100A5000A092B501C8CF60E085E00E94DE0086E08C
:100A60000E94B10260E089E00E94DE008AE00E94FC
:100A7000B1020E9412032B013C0120E030E040EA69
:100A800050E40E94F00587FD0AC020E030E84BEBFF
:100A900054E4C301B2010E94560618165CF5809119
:100AA000AF019091B001019683309105D4F49093F9
:100AB000B0018093AF0183E00E94B5004C01909398
:100AC000B2018093B10182E00E94B5008A94892826
:100AD00019F0019709F087CFF092B601E092B501C5
:100AE00082CF1092B0011092AF01D092B601C092A5
:100AF000B50179CF1092B0011092AF01DCCF83E045
:100B0000882E912C0E94040364EF71E080E090E055
:100B10000E94620160E085E00E94DE0086E00E94A3
:100B2000B10289E00E94B10260E08AE00E94DE002A
:100B300064EF71E080E090E00E94620181E0881A39
:100B4000910801F70E94120320E030E040E752E4F0
:100B50000E94F00518160CF079CF8091B3019091A6
:100B6000B4010196833091052CF49093B4018093E5
:100B7000B30139CF1092B4011092B301D093B601F2
:100B8000C093B50130CFE2E1F1E01382128288EE2A
:100B900093E0A0E0B0E084839583A683B78384E0EC
:100BA00091E09183808385EC90E09587848784EC45
:100BB00090E09787868780EC90E0918B808B81EC2A
:100BC00090E0938B828B82EC90E0958B848B86EC0B
:100BD00090E0978B868B118E128E138E148E089553
:100BE0000E94320608F481E00895E89409C097FB5A
:100BF0003EF490958095709561957F4F8F4F9F4FF4
:100C00009923A9F0F92F96E9BB279395F695879537
:100C100077956795B795F111F8CFFAF4BB0F11F4FA
:100C200060FF1BC06F5F7F4F8F4F9F4F16C08823A1
:100C300011F096E911C0772321F09EE8872F762FD7
:100C400005C0662371F096E8862F70E060E02AF018
:100C50009A95660F771F881FDAF7880F9695879504
:100C600097F90895990F0008550FAA0BE0E8FEEFD9
:100C700016161706E807F907C0F012161306E40760
:100C8000F50798F0621B730B840B950B39F40A2659
:100C900061F0232B242B252B21F408950A2609F437
:100CA000A140A6958FEF811D811D08950E943206F7
:100CB00008F48FEF08950E946E060C94DF060E94E0
:100CC000D10638F00E94D80620F0952311F00C943C
:100CD000C8060C94CE0611240C9413070E94F0064B
:100CE00070F3959FC1F3950F50E0551F629FF0017F
:100CF000729FBB27F00DB11D639FAA27F00DB11D98
:100D0000AA1F649F6627B00DA11D661F829F222720
:100D1000B00DA11D621F739FB00DA11D621F839FA7
:100D2000A00D611D221F749F3327A00D611D231F7D
:100D3000849F600D211D822F762F6A2F11249F57CB
:100D400050409AF0F1F088234AF0EE0FFF1FBB1FCE
:100D5000661F771F881F91505040A9F79E3F51058D
:100D600080F00C94C8060C9413075F3FE4F3983EA0
:100D7000D4F3869577956795B795F795E7959F5F37
:100D8000C1F7FE2B880F911D9695879597F90895C9
:100D900097F99F6780E870E060E008959FEF80EC2E
:100DA000089500240A9416161706180609060895D1
:100DB00000240A9412161306140605060895092E37
:100DC0000394000C11F4882352F0BB0F40F4BF2BA6
:100DD00011F460FF04C06F5F7F4F8F4F9F4F0895E6
:100DE00057FD9058440F551F59F05F3F71F04795DC
:100DF000880F97FB991F61F09F3F79F087950895C1
:100E0000121613061406551FF2CF4695F1DF08C0DF
:100E1000161617061806991FF1CF869571056105FC
:100E200008940895E894BB2766277727CB0197F9A4
:100E30000895EE0FFF1F0590F491E02D0994F894AA
:020E4000FFCFE2
:100E42000000000034029401C1018102F201D001CC
:020E5200E401B9
:00000001FF
